:020000040800F2
:10000000002800206D180008FD17000803180008DC
:10001000091800080F180008151800080000000053
:100020000000000000000000000000001B18000895
:100030002718000800000000331800083F180008C7
:10004000B5180008B5180008B5180008B51800085C
:10005000B5180008B5180008B5180008B51800084C
:10006000B5180008B5180008B5180008B51800083C
:10007000B5180008B5180008B5180008B51800082C
:10008000B5180008B5180008B5180008B51800081C
:10009000B5180008B5180008B5180008B51800080C
:1000A000B5180008B5180008B5180008B5180008FC
:1000B0004D180008B518000800000000B518000829
:1000C000B51800080000000000000000B518000886
:1000D00000000000B5180008B51800080000000076
:1000E000B5180008B5180008B51800080000000091
:1000F0000000000000000000000000000000000000
:0C01000000000000000000005FF808F1A3
:10010C0010B5054C237833B9044B13B10448AFF345
:10011C0000800123237010BD0C00002000000000A3
:10012C00842E000808B5034B1BB103490348AFF3F9
:10013C00008008BD0000000010000020842E000884
:10014C0080B483B000AF7860054A7B681360054BC0
:10015C0000221A6000BF0C37BD4680BC704700BF40
:10016C00280000202C00002080B400AF094B1B6835
:10017C00002B0BDD074B1B68013B064A1360054B3C
:10018C001B68002B02DC044B01221A6000BFBD4629
:10019C0080BC7047280000202C00002080B582B065
:1001AC0000AF786001224FF6FF71C74801F068FE7E
:1001BC007B68072B00F2C18101A252F823F000BF2B
:1001CC00ED01000857020008C10200082B030008CB
:1001DC0095030008FF03000869040008DD0400080B
:1001EC0001220421B94801F04BFE00220821B74836
:1001FC0001F046FE00224FF48061B44801F040FE4D
:10020C0001224FF40061B14801F03AFE01224FF493
:10021C008051AE4801F034FE00224FF40051AB483F
:10022C0001F02EFE00224FF48041A84801F028FE78
:10023C0001224FF40041A54801F022FE00224FF4A8
:10024C008071A14801F01CFE77E1012204219F4836
:10025C0001F016FE002208219C4801F011FE00223C
:10026C004FF48061994801F00BFE01224FF40061BC
:10027C00964801F005FE01224FF48051934801F09D
:10028C00FFFD00224FF40051904801F0F9FD0022CF
:10029C004FF480418D4801F0F3FD01224FF40041F1
:1002AC008A4801F0EDFD00224FF40071864801F000
:1002BC00E7FD42E101220421844801F0E1FD002226
:1002CC000821824801F0DCFD00224FF480617F4858
:1002DC0001F0D6FD01224FF400617C4801F0D0FD05
:1002EC0001224FF48051794801F0CAFD00224FF4ED
:1002FC000051764801F0C4FD00224FF48041734850
:10030C0001F0BEFD01224FF40041704801F0B8FD30
:10031C0000224FF480616C4801F0B2FD0DE1012226
:10032C0004216A4801F0ACFD00220821674801F065
:10033C00A7FD00224FF48061644801F0A1FD00226A
:10034C004FF40061614801F09BFD00224FF4805195
:10035C005E4801F095FD00224FF400515B4801F01E
:10036C008FFD00224FF48041584801F089FD012295
:10037C004FF40041554801F083FD00224FF4006119
:10038C00514801F07DFDD8E0012204214F4801F0D5
:10039C0077FD002208214D4801F072FD00224FF438
:1003AC0080614A4801F06CFD00224FF4006147481F
:1003BC0001F066FD00224FF48051444801F060FDCD
:1003CC0000224FF40051414801F05AFD00224FF435
:1003DC0080413E4801F054FD01224FF400413B485E
:1003EC0001F04EFD00224FF48051374801F048FDDA
:1003FC00A3E001220421354801F042FD002208212E
:10040C00324801F03DFD00224FF480612F4801F08D
:10041C0037FD01224FF400612C4801F031FD01221F
:10042C004FF48051294801F02BFD00224FF400516C
:10043C00264801F025FD00224FF48041234801F0AD
:10044C001FFD01224FF40041204801F019FD00224C
:10045C004FF400511C4801F013FD6EE00122042101
:10046C001A4801F00DFD00220821184801F008FD82
:10047C0000224FF48061154801F002FD01224FF477
:10048C000061124801F0FCFC01224FF480510F482E
:10049C0001F0F6FC00224FF400510C4801F0F0FC86
:1004AC0000224FF48041094801F0EAFC01224FF48C
:1004BC000041064801F0E4FC00224FF48041024860
:1004CC0001F0DEFC39E000BF000C014000080140E7
:1004DC00012204211B4801F0D3FC002208211948F9
:1004EC0001F0CEFC00224FF48061164801F0C8FCEC
:1004FC0001224FF40061134801F0C2FC01224FF4B9
:10050C008051104801F0BCFC00224FF400510D4802
:10051C0001F0B6FC00224FF480410A4801F0B0FC17
:10052C0001224FF40041074801F0AAFC00224FF4CD
:10053C000041054801F0A4FC00BF00BF0837BD46D0
:10054C0080BD00BF00080140000C014080B582B0A6
:10055C0000AF786001224FF6FF71C74801F090FCA4
:10056C007B68072B00F2C18101A252F823F000BF77
:10057C009D0500080706000871060008DB06000848
:10058C0045070008AF070008190800088D08000887
:10059C0001220421B94801F073FC01220821B7485B
:1005AC0001F06EFC00224FF48061B44801F068FC4D
:1005BC0000224FF40061B14801F062FC00224FF4BC
:1005CC008051AE4801F05CFC00224FF40051AB4866
:1005DC0001F056FC01224FF48041A84801F050FC78
:1005EC0001224FF40041A54801F04AFC00224FF4CF
:1005FC008071A14801F044FC77E1012204219F485D
:10060C0001F03EFC002208219C4801F039FC00223C
:10061C004FF48061994801F033FC01224FF40061E2
:10062C00964801F02DFC01224FF48051934801F0C3
:10063C0027FC01224FF40051904801F021FC0022CC
:10064C004FF480418D4801F01BFC01224FF4004116
:10065C008A4801F015FC00224FF40071864801F025
:10066C000FFC42E101220421844801F009FC002224
:10067C000821824801F004FC00224FF480617F487D
:10068C0001F0FEFB01224FF400617C4801F0F8FB05
:10069C0001224FF48051794801F0F2FB01224FF412
:1006AC000051764801F0ECFB00224FF48041734876
:1006BC0001F0E6FB01224FF40041704801F0E0FB31
:1006CC0000224FF480616C4801F0DAFB0DE101224D
:1006DC0004216A4801F0D4FB00220821674801F08C
:1006EC00CFFB00224FF48061644801F0C9FB01226A
:1006FC004FF40061614801F0C3FB01224FF48051BB
:10070C005E4801F0BDFB01224FF400515B4801F043
:10071C00B7FB01224FF48041584801F0B1FB012294
:10072C004FF40041554801F0ABFB00224FF400613F
:10073C00514801F0A5FBD8E0012204214F4801F0FB
:10074C009FFB002208214D4801F09AFB00224FF438
:10075C0080614A4801F094FB01224FF40061474844
:10076C0001F08EFB01224FF48051444801F088FBCC
:10077C0001224FF40051414801F082FB01224FF459
:10078C0080413E4801F07CFB01224FF400413B4884
:10079C0001F076FB00224FF48051374801F070FBDA
:1007AC00A3E001220421354801F06AFB0022082154
:1007BC00324801F065FB00224FF480612F4801F0B4
:1007CC005FFB01224FF400612C4801F059FB012220
:1007DC004FF48051294801F053FB01224FF4005192
:1007EC00264801F04DFB00224FF48041234801F0D4
:1007FC0047FB01224FF40041204801F041FB00224D
:10080C004FF400511C4801F03BFB6EE00122042127
:10081C001A4801F035FB00220821184801F030FB82
:10082C0000224FF48061154801F02AFB01224FF49D
:10083C000061124801F024FB01224FF480510F4853
:10084C0001F01EFB01224FF400510C4801F018FB83
:10085C0000224FF48041094801F012FB01224FF4B1
:10086C000041064801F00CFB00224FF48041024885
:10087C0001F006FB39E000BF000C0140000801400C
:10088C00012204211B4801F0FBFA0122082119481E
:10089C0001F0F6FA00224FF48061164801F0F0FAEC
:1008AC0000224FF40061134801F0EAFA00224FF4E1
:1008BC008051104801F0E4FA00224FF400510D4829
:1008CC0001F0DEFA01224FF480410A4801F0D8FA17
:1008DC0001224FF40041074801F0D2FA00224FF4F4
:1008EC000041054801F0CCFA00BF00BF0837BD46F7
:1008FC0080BD00BF00080140000C014080B582B0F3
:10090C0000AF786001224FF6FF71C74801F0B8FACA
:10091C007B68072B00F2C18101A252F823F000BFC3
:10092C004D090008B7090008210A00088B0A0008C5
:10093C00F50A00085F0B0008C90B00083D0C000805
:10094C0000220421B94801F09BFA00220821B74883
:10095C0001F096FA01224FF48061B44801F090FA4C
:10096C0001224FF40061B14801F08AFA01224FF4E0
:10097C008051AE4801F084FA01224FF40051AB488B
:10098C0001F07EFA00224FF48041A84801F078FA79
:10099C0000224FF40041A54801F072FA00224FF4F6
:1009AC008071A14801F06CFA77E1002204219F4884
:1009BC0001F066FA002208219C4801F061FA00223D
:1009CC004FF48061994801F05BFA01224FF4006109
:1009DC00964801F055FA01224FF48051934801F0EA
:1009EC004FFA00224FF40051904801F049FA0022CE
:1009FC004FF480418D4801F043FA00224FF400413E
:100A0C008A4801F03DFA00224FF40071864801F04B
:100A1C0037FA42E100220421844801F031FA002225
:100A2C000821824801F02CFA01224FF480617F48A2
:100A3C0001F026FA00224FF400617C4801F020FA04
:100A4C0000224FF48051794801F01AFA01224FF438
:100A5C000051764801F014FA00224FF4804173489B
:100A6C0001F00EFA00224FF40041704801F008FA30
:100A7C0000224FF480616C4801F002FA0DE1002273
:100A8C0004216A4801F0FCF900220821674801F0B2
:100A9C00F7F901224FF48061644801F0F1F900226A
:100AAC004FF40061614801F0EBF900224FF48051E2
:100ABC005E4801F0E5F901224FF400515B4801F06A
:100ACC00DFF900224FF48041584801F0D9F9002297
:100ADC004FF40041554801F0D3F900224FF4006166
:100AEC00514801F0CDF9D8E0002204214F4801F023
:100AFC00C7F9002208214D4801F0C2F901224FF438
:100B0C0080614A4801F0BCF901224FF4006147486A
:100B1C0001F0B6F901224FF48051444801F0B0F9CC
:100B2C0001224FF40051414801F0AAF900224FF480
:100B3C0080413E4801F0A4F900224FF400413B48AB
:100B4C0001F09EF900224FF48051374801F098F9DA
:100B5C00A3E000220421354801F092F9002208217B
:100B6C00324801F08DF901224FF480612F4801F0D9
:100B7C0087F901224FF400612C4801F081F9012220
:100B8C004FF48051294801F07BF901224FF40051B8
:100B9C00264801F075F900224FF48041234801F0FA
:100BAC006FF900224FF40041204801F069F900224E
:100BBC004FF400511C4801F063F96EE0002204214F
:100BCC001A4801F05DF900220821184801F058F983
:100BDC0001224FF48061154801F052F901224FF4C3
:100BEC000061124801F04CF901224FF480510F487A
:100BFC0001F046F901224FF400510C4801F040F984
:100C0C0000224FF48041094801F03AF900224FF4D8
:100C1C000041064801F034F900224FF480410248AB
:100C2C0001F02EF939E000BF000C01400008014032
:100C3C00002204211B4801F023F900220821194845
:100C4C0001F01EF901224FF48061164801F018F9E9
:100C5C0001224FF40061134801F012F901224FF404
:100C6C008051104801F00CF901224FF400510D484D
:100C7C0001F006F900224FF480410A4801F000F916
:100C8C0000224FF40041074801F0FAF800224FF41B
:100C9C000041054801F0F4F800BF00BF0837BD461D
:100CAC0080BD00BF00080140000C014080B582B03F
:100CBC0000AF786001224FF6FF71C74801F0E0F8F1
:100CCC007B68072B00F2C18101A252F823F000BF10
:100CDC00FD0C0008670D0008D10D00083B0E000844
:100CEC00A50E00080F0F0008790F0008ED0F000883
:100CFC0001220421B94801F0C3F800220821B748A9
:100D0C0001F0BEF800224FF48061B44801F0B8F84D
:100D1C0001224FF40061B14801F0B2F801224FF406
:100D2C008051AE4801F0ACF800224FF40051AB48B2
:100D3C0001F0A6F800224FF48041A84801F0A0F879
:100D4C0001224FF40041A54801F09AF800224FF41B
:100D5C008071A14801F094F877E1012204219F48A9
:100D6C0001F08EF8002208219C4801F089F800223D
:100D7C004FF48061994801F083F801224FF400612F
:100D8C00964801F07DF801224FF48051934801F010
:100D9C0077F800224FF40051904801F071F80022CE
:100DAC004FF480418D4801F06BF801224FF4004163
:100DBC008A4801F065F800224FF40071864801F072
:100DCC005FF842E101220421844801F059F8002225
:100DDC000821824801F054F800224FF480617F48CA
:100DEC0001F04EF801224FF400617C4801F048F804
:100DFC0001224FF48051794801F042F800224FF45F
:100E0C000051764801F03CF800224FF480417348C1
:100E1C0001F036F801224FF40041704801F030F82F
:100E2C0000224FF480616C4801F02AF80DE1012298
:100E3C0004216A4801F024F800220821674801F0D7
:100E4C001FF800224FF48061644801F019F8012268
:100E5C004FF40061614801F013F801224FF4805106
:100E6C005E4801F00DF800224FF400515B4801F090
:100E7C0007F800224FF48041584801F001F8012294
:100E8C004FF40041554800F0FBFF00224FF4006185
:100E9C00514800F0F5FFD8E0012204214F4800F042
:100EAC00EFFF002208214D4800F0EAFF00224FF42A
:100EBC0080614A4800F0E4FF01224FF4006147488A
:100ECC0000F0DEFF01224FF48051444800F0D8FFBF
:100EDC0000224FF40051414800F0D2FF00224FF4A1
:100EEC0080413E4800F0CCFF01224FF400413B48CA
:100EFC0000F0C6FF00224FF48051374800F0C0FFCD
:100F0C00A3E001220421354800F0BAFF0022082199
:100F1C00324800F0B5FF00224FF480612F4800F0FA
:100F2C00AFFF01224FF400612C4800F0A9FF012211
:100F3C004FF48051294800F0A3FF00224FF40051D8
:100F4C00264800F09DFF00224FF48041234800F01A
:100F5C0097FF01224FF40041204800F091FF00223E
:100F6C004FF400511C4800F08BFF6EE0012204216D
:100F7C001A4800F085FF00220821184800F080FF75
:100F8C0000224FF48061154800F07AFF01224FF4E3
:100F9C000061124800F074FF01224FF480510F4899
:100FAC0000F06EFF00224FF400510C4800F068FF77
:100FBC0000224FF48041094800F062FF01224FF4F7
:100FCC000041064800F05CFF00224FF480410248CB
:100FDC0000F056FF39E000BF000C01400008014052
:100FEC00012204211B4800F04BFF01220821194863
:100FFC0000F046FF00224FF48061164800F040FFDD
:10100C0000224FF40061134800F03AFF00224FF425
:10101C008051104800F034FF00224FF400510D486D
:10102C0000F02EFF01224FF480410A4800F028FF07
:10103C0001224FF40041074800F022FF00224FF438
:10104C000041054800F01CFF00BF00BF0837BD463B
:10105C0080BD00BF00080140000C014080B582B08B
:10106C0000AF786001224FF6FF71C74800F008FF0F
:10107C007B68072B00F2C18101A252F823F000BF5C
:10108C00AD1000081711000881110008EB110008C1
:10109C0055120008BF120008291300089D13000800
:1010AC0001220421B94800F0EBFE00220821B748C8
:1010BC0000F0E6FE00224FF48061B44800F0E0FE40
:1010CC0000224FF40061B14800F0DAFE00224FF428
:1010DC008051AE4800F0D4FE00224FF40051AB48D2
:1010EC0000F0CEFE00224FF48041A84800F0C8FE6C
:1010FC0001224FF40041A54800F0C2FE00224FF43B
:10110C008071A14800F0BCFE77E1012204219F48C8
:10111C0000F0B6FE002208219C4800F0B1FE00222F
:10112C004FF48061994800F0ABFE00224FF400614F
:10113C00964800F0A5FE00224FF48051934800F031
:10114C009FFE00224FF40051904800F099FE0022BF
:10115C004FF480418D4800F093FE01224FF4004182
:10116C008A4800F08DFE00224FF40071864800F092
:10117C0087FE42E101220421844800F081FE012215
:10118C000821824800F07CFE01224FF480617F48E8
:10119C0000F076FE00224FF400617C4800F070FEF7
:1011AC0000224FF48051794800F06AFE01224FF47E
:1011BC000051764800F064FE01224FF480417348E0
:1011CC0000F05EFE01224FF40041704800F058FE22
:1011DC0000224FF480616C4800F052FE0DE10122B8
:1011EC0004216A4800F04CFE01220821674800F0F7
:1011FC0047FE01224FF48061644800F041FE00225A
:10120C004FF40061614800F03BFE00224FF4805126
:10121C005E4800F035FE01224FF400515B4800F0AF
:10122C002FFE01224FF48041584800F029FE012284
:10123C004FF40041554800F023FE00224FF40061AA
:10124C00514800F01DFED8E0012204214F4800F067
:10125C0017FE012208214D4800F012FE01224FF426
:10126C0080614A4800F00CFE00224FF400614748B0
:10127C0000F006FE00224FF48051444800F000FEBE
:10128C0001224FF40051414800F0FAFD01224FF4C5
:10129C0080413E4800F0F4FD01224FF400413B48F0
:1012AC0000F0EEFD00224FF48051374800F0E8FDCD
:1012BC00A3E001220421354800F0E2FD01220821BF
:1012CC00324800F0DDFD01224FF480612F4800F020
:1012DC00D7FD00224FF400612C4800F0D1FD002214
:1012EC004FF48051294800F0CBFD01224FF40051FE
:1012FC00264800F0C5FD01224FF48041234800F040
:10130C00BFFD01224FF40041204800F0B9FD00223E
:10131C004FF400511C4800F0B3FD6EE00122042193
:10132C001A4800F0ADFD01220821184800F0A8FD74
:10133C0001224FF48061154800F0A2FD00224FF409
:10134C000061124800F09CFD00224FF480510F48C0
:10135C0000F096FD01224FF400510C4800F090FD76
:10136C0001224FF48041094800F08AFD01224FF41C
:10137C000041064800F084FD00224FF480410248F1
:10138C0000F07EFD39E000BF000C01400008014078
:10139C00012204211B4800F073FD01220821194889
:1013AC0000F06EFD01224FF48061164800F068FDDC
:1013BC0000224FF40061134800F062FD00224FF44C
:1013CC008051104800F05CFD01224FF400510D4893
:1013DC0000F056FD01224FF480410A4800F050FD08
:1013EC0001224FF40041074800F04AFD00224FF45F
:1013FC000041054800F044FD00BF00BF0837BD4662
:10140C0080BD00BF00080140000C014080B400AF5B
:10141C0000BFBD4680BC704780B400AF00BFBD4666
:10142C0080BC704780B582B000AFFFF7EFFF00F0D3
:10143C003DFA00F099F800F01FF900F0D1F845489A
:10144C0001F062F90120FEF77BFE012240214248A7
:10145C0000F016FD012280213F4800F011FD012211
:10146C004FF480713C4800F00BFD01224FF40071E9
:10147C00394800F005FD01221021374800F000FD2D
:10148C0001222021344800F0FBFC4FF47A737B607E
:10149C00324B1B68012BFBD1FFF7BEFF7B68013B76
:1014AC007B607B68B3F5487F09DD7B68B3F57A7F99
:1014BC0005DC2B4B1B681846FEF770FE3AE07B6888
:1014CC00B3F5167F09DD7B68B3F5487F05DC244B4B
:1014DC001B681846FFF73AF82CE07B68B3F5C87F19
:1014EC0009DD7B68B3F5167F05DC1D4B1B681846C0
:1014FC00FFF704FA1EE07B68C82B09DD7B68B3F5A7
:10150C00C87F05DC164B1B681846FFF7CFFB11E0B4
:10151C007B68002B08DD7B68C82B05DC104B1B6837
:10152C001846FFF79BFD05E07B68002B02D14FF4BA
:10153C007A737B600A4B1B6801330A4A126893FB6F
:10154C00F2F102FB01F29B1A054A13600120FEF72F
:10155C00F7FD9DE734000020000801402C0000201E
:10156C00300000209C2E000880B590B000AF07F131
:10157C00180328220021184601F076FC3B1D00229E
:10158C001A605A609A60DA601A610223BB61012307
:10159C00BB621023FB6200237B6307F11803184620
:1015AC0000F086FC0346002B01D000F0C5F80F2399
:1015BC007B600023BB600023FB6000233B610023A6
:1015CC007B613B1D0021184600F0F2FE0346002B08
:1015DC0001D000F0B1F800BF4037BD4680BD00001F
:1015EC0080B586B000AF07F1080300221A605A607C
:1015FC009A60DA603B4600221A605A601D4B4FF02D
:10160C0080421A601B4B41F63F725A60194B002204
:10161C009A60184B0922DA60164B00221A61154B9E
:10162C0000229A61134801F01FF80346002B01D0E9
:10163C0000F082F84FF48053BB6007F108031946A1
:10164C000C4801F09DF90346002B01D000F074F812
:10165C0000233B6000237B603B461946054801F0A4
:10166C0075FB0346002B01D000F066F800BF18375D
:10167C00BD4680BD3400002080B586B000AF07F1B8
:10168C00080300221A605A609A60DA60224B9B6948
:10169C00214A43F0040393611F4B9B6903F004033D
:1016AC007B607B681C4B9B691B4A43F0080393616E
:1016BC00194B9B6903F008033B603B6800224FF613
:1016CC00FC71164800F0DCFB00224FF67F711448C9
:1016DC0000F0D6FB4FF6FC73BB600123FB600023CC
:1016EC003B6102237B6107F1080319460B4800F0AC
:1016FC004DFA4FF67F73BB600123FB6000233B6107
:10170C0002237B6107F108031946054800F03EFAF5
:10171C0000BF1837BD4680BD0010024000080140D4
:10172C00000C014080B582B000AF7860FEF71CFD64
:10173C0000BF0837BD4680BD80B400AF72B600BF95
:10174C00FEE7000080B485B000AF154B9B69144ACE
:10175C0043F001039361124B9B6903F00103BB60DF
:10176C00BB680F4BDB690E4A43F08053D3610C4BC3
:10177C00DB6903F080537B607B680A4B5B68FB6022
:10178C00FB6823F0E063FB60FB6843F08063FB6065
:10179C00044AFB68536000BF1437BD4680BC7047D9
:1017AC00001002400000014080B584B000AF7860AA
:1017BC007B681B68B3F1804F13D10C4BDB690B4A70
:1017CC0043F00103D361094BDB6903F00103FB60B8
:1017DC00FB68002200211C2000F0A1F91C2000F065
:1017EC00BAF900BF1037BD4680BD00BF00100240E3
:1017FC0080B400AFFEE780B400AFFEE780B400AF6A
:10180C00FEE780B400AFFEE780B400AFFEE780B423
:10181C0000AF00BFBD4680BC704780B400AF00BFB6
:10182C00BD4680BC704780B400AF00BFBD4680BCD5
:10183C00704780B500AF00F07FF800BF80BD00009E
:10184C0080B500AF024800F0ABFF00BF80BD00BF09
:10185C003400002080B400AF00BFBD4680BC704790
:10186C00FFF7F8FF0B480C490C4A002302E0D45850
:10187C00C4500433C4188C42F9D3094A094C0023D0
:10188C0001E013600432A242FBD301F0C9FAFFF766
:10189C00C9FD7047000000200C000020CC2E000871
:1018AC000C00002080000020FEE7000080B500AF97
:1018BC00084B1B68074A43F010031360032000F029
:1018CC0023F90F2000F008F8FFF73CFF002318461F
:1018DC0080BD00BF0020024080B582B000AF7860B0
:1018EC00124B1A68124B1B7819464FF47A73B3FBE0
:1018FC00F1F3B2FBF3F3184600F03BF90346002B6F
:10190C0001D001230EE07B680F2B0AD800227968E6
:10191C004FF0FF3000F003F9064A7B681360002398
:10192C0000E0012318460837BD4680BD00000020AA
:10193C00080000200400002080B400AF054B1B7889
:10194C001A46054B1B681344034A136000BFBD467F
:10195C0080BC7047080000207C00002080B400AFE1
:10196C00024B1B681846BD4680BC70477C000020AB
:10197C0080B485B000AF78607B6803F00703FB6030
:10198C000C4BDB68BB60BA684FF6FF031340BB60BF
:10199C00FB681A02BB68134343F0BF6343F4003384
:1019AC00BB60044ABB68D36000BF1437BD4680BC23
:1019BC00704700BF00ED00E080B400AF044BDB6863
:1019CC001B0A03F007031846BD4680BC704700BFD6
:1019DC0000ED00E080B483B000AF0346FB7197F9D3
:1019EC000730002B0BDBFB7903F01F02064997F93C
:1019FC0007305B09012000FA02F241F8232000BFF6
:101A0C000C37BD4680BC704700E100E080B483B069
:101A1C0000AF03463960FB7197F90730002B0ADBE6
:101A2C003B68DAB20C4997F907301201D2B20B4479
:101A3C0083F800230AE03B68DAB20849FB7903F02B
:101A4C000F03043B1201D2B20B441A7600BF0C37C1
:101A5C00BD4680BC704700BF00E100E000ED00E037
:101A6C0080B489B000AFF860B9607A60FB6803F0AD
:101A7C000703FB61FB69C3F10703042B28BF042395
:101A8C00BB61FB690433062B02D9FB69033B00E005
:101A9C0000237B614FF0FF32BB6902FA03F3DA4398
:101AAC00BB681A407B699A404FF0FF317B6901FAA1
:101ABC0003F3D9437B680B40134318462437BD46C8
:101ACC0080BC704780B582B000AF78607B68013B0A
:101ADC00B3F1807F01D301230FE00A4A7B68013BFD
:101AEC0053600F214FF0FF30FFF790FF054B0022A2
:101AFC009A60044B07221A60002318460837BD462B
:101B0C0080BD00BF10E000E080B582B000AF78600F
:101B1C007868FFF72DFF00BF0837BD4680BD80B544
:101B2C0086B000AF0346B9607A60FB7300237B611B
:101B3C00FFF742FF78617A68B9687869FFF790FF20
:101B4C00024697F90F3011461846FFF75FFF00BFAA
:101B5C001837BD4680BD80B582B000AF0346FB711F
:101B6C0097F907301846FFF735FF00BF0837BD4619
:101B7C0080BD80B582B000AF78607868FFF7A2FFB7
:101B8C00034618460837BD4680BD000080B48BB0B4
:101B9C0000AF7860396000237B6200233B6248E130
:101BAC0001227B6A02FA03F3FB613B681B68FA694A
:101BBC001340BB61BA69FB699A4240F037813B68BC
:101BCC005B68A34A93425ED0A14A934275D8A14A5E
:101BDC00934258D09F4A93426FD89F4A934252D017
:101BEC009D4A934269D89D4A93424CD09B4A93425A
:101BFC0063D89B4A934246D0994A93425DD8122BA4
:101C0C002AD8122B59D801A252F823F0931C0008A1
:101C1C006D1C00087F1C0008C11C0008C71C0008B4
:101C2C00C71C0008C71C0008C71C0008C71C0008FC
:101C3C00C71C0008C71C0008C71C0008C71C0008EC
:101C4C00C71C0008C71C0008C71C0008C71C0008DC
:101C5C00751C0008891C0008824A934213D02CE0A2
:101C6C003B68DB683B6229E03B68DB6804333B6222
:101C7C0024E03B68DB6808333B621FE03B68DB68B1
:101C8C000C333B621AE03B689B68002B02D10423A7
:101C9C003B6213E03B689B68012B05D108233B6238
:101CAC007B68FA691A6109E008233B627B68FA6970
:101CBC005A6103E000233B6200E000BFBB69FF2BCD
:101CCC0001D87B6801E07B6804337B61BB69FF2B27
:101CDC0002D87B6A9B0002E07B6A083B9B003B615D
:101CEC007B691A680F213B6901FA03F3DB431A4045
:101CFC00396A3B6901FA03F31A437B691A603B6842
:101D0C005B6803F08053002B00F09080564B9B696E
:101D1C00554A43F001039361534B9B6903F0010354
:101D2C00BB60BB68514A7B6A9B08023352F8233074
:101D3C00FB607B6A03F003039B000F2202FA03F3A0
:101D4C00DB43FA681340FB607B68494A93420DD031
:101D5C007B68484A934207D07B68474A934201D13B
:101D6C00022304E0032302E0012300E000237A6A4B
:101D7C0002F0030292009340FA681343FB603B4964
:101D8C007B6A9B080233FA6841F823203B685B6846
:101D9C0003F48013002B06D0384B9A683749BB6983
:101DAC0013438B6006E0354B9A68BB69DB433349C0
:101DBC0013408B603B685B6803F40013002B06D068
:101DCC002E4BDA682D49BB691343CB6006E02B4BD5
:101DDC00DA68BB69DB4329491340CB603B685B681D
:101DEC0003F40033002B06D0244B5A682349BB69FB
:101DFC0013434B6006E0214B5A68BB69DB431F4918
:101E0C0013404B603B685B6803F48033002B06D0B7
:101E1C001A4B1A681949BB6913430B6006E0174B40
:101E2C001A68BB69DB43154913400B607B6A0133AD
:101E3C007B623B681A687B6A22FA03F3002B7FF4FF
:101E4C00AFAE00BF00BF2C37BD4680BC704700BF93
:101E5C000000321000003110000022100000211090
:101E6C000000121000001110001002400000014090
:101E7C0000080140000C014000100140000401402A
:101E8C0080B483B000AF78600B467B8013467B70C8
:101E9C007B78002B03D07A887B681A6103E07B88FF
:101EAC001A047B681A6100BF0C37BD4680BC7047B2
:101EBC0080B586B000AF78607B68002B01D1012320
:101ECC006CE27B681B6803F00103002B00F0878039
:101EDC00924B5B6803F00C03042B0CD08F4B5B68AC
:101EEC0003F00C03082B12D18C4B5B6803F480338A
:101EFC00B3F5803F0BD1894B1B6803F40033002BE7
:101F0C006CD07B685B68002B68D1012346E27B6850
:101F1C005B68B3F5803F06D1804B1B687F4A43F466
:101F2C00803313602EE07B685B68002B0CD17B4BFD
:101F3C001B687A4A23F480331360784B1B68774A0A
:101F4C0023F4802313601DE07B685B68B3F5A02F3E
:101F5C000CD1724B1B68714A43F4802313606F4B96
:101F6C001B686E4A43F4803313600BE06B4B1B68A9
:101F7C006A4A23F480331360684B1B68674A23F466
:101F8C00802313607B685B68002B13D0FFF7E6FCA3
:101F9C00386108E0FFF7E2FC02463B69D31A642B78
:101FAC0001D90323FAE15D4B1B6803F40033002BCA
:101FBC00F0D014E0FFF7D2FC386108E0FFF7CEFC5C
:101FCC0002463B69D31A642B01D90323E6E1534B38
:101FDC001B6803F40033002BF0D100E000BF7B68DA
:101FEC001B6803F00203002B63D04C4B5B6803F0BF
:101FFC000C03002B0BD0494B5B6803F00C03082B34
:10200C001CD1464B5B6803F48033002B16D1434B39
:10201C001B6803F00203002B05D07B681B69012BA6
:10202C0001D00123BAE13D4B1B6823F0F8027B6819
:10203C005B69DB00394913430B603AE07B681B6931
:10204C00002B20D0364B01221A60FFF787FC386139
:10205C0008E0FFF783FC02463B69D31A022B01D937
:10206C0003239BE12D4B1B6803F00203002BF0D0E4
:10207C002A4B1B6823F0F8027B685B69DB0027495D
:10208C0013430B6015E0264B00221A60FFF766FC29
:10209C00386108E0FFF762FC02463B69D31A022B59
:1020AC0001D903237AE11D4B1B6803F00203002BBB
:1020BC00F0D17B681B6803F00803002B3AD07B68D7
:1020CC009B69002B19D0174B01221A60FFF746FCB5
:1020DC00386108E0FFF742FC02463B69D31A022B39
:1020EC0001D903235AE10D4B5B6A03F00203002B69
:1020FC00F0D0012000F09AFA1CE00A4B00221A6082
:10210C00FFF72CFC38610FE0FFF728FC02463B6917
:10211C00D31A022B08D9032340E100BF0010024060
:10212C0000004242800442429E4B5B6A03F0020371
:10213C00002BE9D17B681B6803F00403002B00F033
:10214C00A6800023FB75974BDB6903F08053002BB3
:10215C000DD1944BDB69934A43F08053D361914B7F
:10216C00DB6903F08053BB60BB680123FB758E4BAE
:10217C001B6803F48073002B18D18B4B1B688A4AA5
:10218C0043F480731360FFF7E9FB386108E0FFF755
:10219C00E5FB02463B69D31A642B01D90323FDE00E
:1021AC00814B1B6803F48073002BF0D07B68DB68D9
:1021BC00012B06D17B4B1B6A7A4A43F00103136255
:1021CC002DE07B68DB68002B0CD1764B1B6A754AC3
:1021DC0023F001031362734B1B6A724A23F004034E
:1021EC0013621CE07B68DB68052B0CD16D4B1B6A02
:1021FC006C4A43F0040313626A4B1B6A694A43F04E
:10220C00010313620BE0674B1B6A664A23F0010360
:10221C001362644B1B6A634A23F0040313627B68EA
:10222C00DB68002B15D0FFF799FB38610AE0FFF74C
:10223C0095FB02463B69D31A41F28832934201D98D
:10224C000323ABE0574B1B6A03F00203002BEED0C9
:10225C0014E0FFF783FB38610AE0FFF77FFB0246CF
:10226C003B69D31A41F28832934201D9032395E09A
:10227C004C4B1B6A03F00203002BEED1FB7D012BB0
:10228C0005D1484BDB69474A23F08053D3617B6807
:10229C00DB69002B00F08180424B5B6803F00C0380
:1022AC00082B61D07B68DB69022B46D13F4B0022A7
:1022BC001A60FFF753FB386108E0FFF74FFB02464B
:1022CC003B69D31A022B01D9032367E0354B1B68FA
:1022DC0003F00073002BF0D17B681B6AB3F5803FD1
:1022EC0008D1304B5B6823F400327B689B682D4926
:1022FC0013434B602B4B5B6823F474127B68196A95
:10230C007B685B6A0B43274913434B60274B0122C5
:10231C001A60FFF723FB386108E0FFF71FFB02464A
:10232C003B69D31A022B01D9032337E01D4B1B68E1
:10233C0003F00073002BF0D02FE01C4B00221A602E
:10234C00FFF70CFB386108E0FFF708FB02463B691E
:10235C00D31A022B01D9032320E0124B1B6803F084
:10236C000073002BF0D118E07B68DB69012B01D1E5
:10237C00012313E00B4B5B68FB60FB6803F48032BA
:10238C007B681B6A9A4206D1FB6803F470127B6867
:10239C005B6A9A4201D0012300E0002318461837EB
:1023AC00BD4680BD001002400070004060004242FB
:1023BC0080B584B000AF786039607B68002B01D1A8
:1023CC000123D0E06A4B1B6803F007033A689A427A
:1023DC0010D9674B1B6823F0070265493B68134310
:1023EC000B60634B1B6803F007033A689A4201D0F9
:1023FC000123B8E07B681B6803F00203002B20D09C
:10240C007B681B6803F00403002B05D0594B5B68F9
:10241C00584A43F4E06353607B681B6803F008037D
:10242C00002B05D0534B5B68524A43F46053536006
:10243C00504B5B6823F0F0027B689B684D4913435B
:10244C004B607B681B6803F00103002B40D07B685A
:10245C005B68012B07D1474B1B6803F40033002B3F
:10246C0015D101237FE07B685B68022B07D1414BC0
:10247C001B6803F00073002B09D1012373E03D4B63
:10248C001B6803F00203002B01D101236BE0394BD5
:10249C005B6823F003027B685B68364913434B602F
:1024AC00FFF75CFAF8600AE0FFF758FA0246FB689F
:1024BC00D31A41F28832934201D9032353E02D4BB6
:1024CC005B6803F00C027B685B689B009A42EBD163
:1024DC00274B1B6803F007033A689A4210D2244B2F
:1024EC001B6823F0070222493B6813430B60204B07
:1024FC001B6803F007033A689A4201D0012332E0CB
:10250C007B681B6803F00403002B08D0194B5B6835
:10251C0023F4E0627B68DB68164913434B607B68ED
:10252C001B6803F00803002B09D0124B5B6823F4E3
:10253C0060527B681B69DB000E4913434B6000F053
:10254C0021F802460B4B5B681B0903F00F030A4989
:10255C00CB5C22FA03F3094A1360094B1B6818463B
:10256C00FFF7BAF9002318461037BD4680BD00BFEF
:10257C000020024000100240A02E000800000020A5
:10258C000400002080B487B000AF0023FB60002360
:10259C00BB6000237B6100237B6000233B611E4BEF
:1025AC005B68FB60FB6803F00C03042B02D0082B68
:1025BC0003D027E0194B3B6127E0FB689B0C03F031
:1025CC000F03174AD35C7B60FB6803F48033002B4A
:1025DC0010D0114B5B685B0C03F00103114AD35C08
:1025EC00BB607B680D4A02FB03F2BB68B2FBF3F3E2
:1025FC007B6104E07B680C4A02FB03F37B617B6923
:10260C003B6102E0054B3B6100BF3B6918461C3740
:10261C00BD4680BC704700BF0010024000127A001B
:10262C00B02E0008C02E000800093D0080B485B013
:10263C0000AF78600A4B1B680A4AA2FB03235B0AB3
:10264C007A6802FB03F3FB6000BFFB685A1EFA605A
:10265C00002BF9D100BF00BF1437BD4680BC7047BA
:10266C0000000020D34D621080B582B000AF7860BE
:10267C007B68002B01D1012341E07B6893F83D304E
:10268C00DBB2002B06D17B68002283F83C207868F3
:10269C00FFF78AF87B68022283F83D207B681A6872
:1026AC007B6804331946104600F056FA7B68012209
:1026BC0083F846207B68012283F83E207B68012248
:1026CC0083F83F207B68012283F840207B6801223D
:1026DC0083F841207B68012283F842207B68012229
:1026EC0083F843207B68012283F844207B68012215
:1026FC0083F845207B68012283F83D20002318468F
:10270C000837BD4680BD000080B485B000AF78604E
:10271C007B6893F83D30DBB2012B01D0012335E00F
:10272C007B68022283F83D207B681B68DA687B6833
:10273C001B6842F00102DA607B681B68164A934200
:10274C0009D07B681B68B3F1804F04D07B681B6891
:10275C00124A934211D17B681B689B6803F00703F4
:10276C00FB60FB68062B10D07B681B681A687B68C3
:10277C001B6842F001021A6007E07B681B681A684C
:10278C007B681B6842F001021A600023184614375C
:10279C00BD4680BC704700BF002C014000040040C7
:1027AC0080B584B000AF78607B681B68DB68FB6029
:1027BC007B681B681B69BB60BB6803F00203002BC2
:1027CC0020D0FB6803F00203002B1BD07B681B6836
:1027DC006FF002021A617B6801221A777B681B6812
:1027EC009B6903F00303002B03D0786800F098F981
:1027FC0005E0786800F08BF9786800F09AF97B684E
:10280C0000221A77BB6803F00403002B20D0FB686E
:10281C0003F00403002B1BD07B681B686FF00402D1
:10282C001A617B6802221A777B681B689B6903F428
:10283C004073002B03D0786800F072F905E07868DB
:10284C0000F065F9786800F074F97B6800221A775B
:10285C00BB6803F00803002B20D0FB6803F00803CF
:10286C00002B1BD07B681B686FF008021A617B6819
:10287C0004221A777B681B68DB6903F00303002BC7
:10288C0003D0786800F04CF905E0786800F03FF967
:10289C00786800F04EF97B6800221A77BB6803F069
:1028AC001003002B20D0FB6803F01003002B1BD06F
:1028BC007B681B686FF010021A617B6808221A771C
:1028CC007B681B68DB6903F44073002B03D07868CA
:1028DC0000F026F905E0786800F019F9786800F046
:1028EC0028F97B6800221A77BB6803F00103002BE0
:1028FC000CD0FB6803F00103002B07D07B681B682E
:10290C006FF001021A617868FEF70CFFBB6803F0E8
:10291C008003002B0CD0FB6803F08003002B07D046
:10292C007B681B686FF080021A61786800F06FFAA0
:10293C00BB6803F04003002B0CD0FB6803F0400392
:10294C00002B07D07B681B686FF040021A61786817
:10295C0000F0F8F8BB6803F02003002B0CD0FB68E8
:10296C0003F02003002B07D07B681B686FF020025C
:10297C001A61786800F042FA00BF1037BD4680BD7E
:10298C0080B584B000AF786039600023FB737B683E
:10299C0093F83C30012B01D10223B4E07B68012277
:1029AC0083F83C207B68022283F83D207B681B68FF
:1029BC009B68BB60BB6823F07703BB60BB6823F4E8
:1029CC007F43BB607B681B68BA689A603B681B6876
:1029DC00B3F5005F3ED0B3F5005F00F28780B3F52E
:1029EC00805F00F08680B3F5805F7FD8702B1AD0A3
:1029FC00702B7BD8602B50D0602B77D8502B3CD0D1
:102A0C00502B73D8402B58D0402B6FD8302B64D020
:102A1C00302B6BD8202B60D0202B67D8002B5CD0B0
:102A2C00102B5AD062E07B6818683B6899683B6849
:102A3C005A683B68DB6800F06AF97B681B689B6826
:102A4C00BB60BB6843F07703BB607B681B68BA68EC
:102A5C009A604FE07B6818683B6899683B685A68D5
:102A6C003B68DB6800F053F97B681B689A687B68ED
:102A7C001B6842F480429A603CE07B6818683B68B3
:102A8C0059683B68DB681A4600F0CAF87B681B681B
:102A9C005021184600F021F92CE07B6818683B683F
:102AAC0059683B68DB681A4600F0E8F87B681B68DD
:102ABC006021184600F011F91CE07B6818683B682F
:102ACC0059683B68DB681A4600F0AAF87B681B68FB
:102ADC004021184600F001F90CE07B681A683B684D
:102AEC001B681946104600F0F8F803E00123FB734D
:102AFC0000E000BF7B68012283F83D207B68002248
:102B0C0083F83C20FB7B18461037BD4680BD80B453
:102B1C0083B000AF786000BF0C37BD4680BC7047F7
:102B2C0080B483B000AF786000BF0C37BD4680BC6A
:102B3C00704780B483B000AF786000BF0C37BD46DF
:102B4C0080BC704780B483B000AF786000BF0C3796
:102B5C00BD4680BC7047000080B485B000AF786083
:102B6C0039607B681B68FB607B682B4A934207D0FB
:102B7C007B68B3F1804F03D07B68284A934208D11D
:102B8C00FB6823F07003FB603B685B68FA681343D7
:102B9C00FB607B68204A934207D07B68B3F1804F7F
:102BAC0003D07B681D4A934208D1FB6823F4407321
:102BBC00FB603B68DB68FA681343FB60FB6823F03F
:102BCC0080023B685B691343FB607B68FA681A60A0
:102BDC003B689A687B68DA623B681A687B689A6221
:102BEC007B680D4A934203D13B681A697B681A6370
:102BFC007B6801225A617B681B6903F00103002B7F
:102C0C0005D07B681B6923F001027B681A6100BF49
:102C1C001437BD4680BC7047002C014000040040B6
:102C2C0080B487B000AFF860B9607A60FB681B6A4B
:102C3C007B61FB681B6A23F00102FB681A62FB686C
:102C4C009B693B613B6923F0F0033B617B681B0193
:102C5C003A6913433B617B6923F00A037B617A6910
:102C6C00BB6813437B61FB683A699A61FB687A69BC
:102C7C001A6200BF1C37BD4680BC704780B487B059
:102C8C0000AFF860B9607A60FB681B6A7B61FB6817
:102C9C001B6A23F01002FB681A62FB689B693B619C
:102CAC003B6923F470433B617B681B033A69134314
:102CBC003B617B6923F0A0037B61BB681B017A69D4
:102CCC0013437B61FB683A699A61FB687A691A6203
:102CDC0000BF1C37BD4680BC704780B485B000AFC8
:102CEC00786039607B689B68FB60FB6823F070033D
:102CFC00FB603A68FB68134343F00703FB607B6897
:102D0C00FA689A6000BF1437BD4680BC704780B427
:102D1C0087B000AFF860B9607A603B60FB689B6875
:102D2C007B617B6923F47F437B613B681A027B6880
:102D3C001A43BB6813437A6913437B61FB687A6956
:102D4C009A6000BF1C37BD4680BC704780B485B00C
:102D5C0000AF786039607B6893F83C30012B01D16F
:102D6C00022341E07B68012283F83C207B6802222D
:102D7C0083F83D207B681B685B68FB607B681B6885
:102D8C009B68BB60FB6823F07003FB603B681B68AF
:102D9C00FA681343FB607B681B68FA685A607B68AF
:102DAC001B68144A934209D07B681B68B3F1804FAF
:102DBC0004D07B681B68104A93420CD1BB6823F08B
:102DCC008003BB603B685B68BA681343BB607B687D
:102DDC001B68BA689A607B68012283F83D207B6887
:102DEC00002283F83C20002318461437BD4680BCD3
:102DFC00704700BF002C01400004004080B483B039
:102E0C0000AF786000BF0C37BD4680BC704780B403
:102E1C0083B000AF786000BF0C37BD4680BC7047F4
:102E2C0070B500260C4D0D4C641BA410A64209D1A4
:102E3C0000F022F800260A4D0A4C641BA410A6428E
:102E4C0005D170BD55F8043B98470136EEE755F8AF
:102E5C00043B98470136F2E7C42E0008C42E000844
:102E6C00C42E0008C82E000803460244934200D129
:102E7C00704703F8011BF9E7F8B500BFF8BC08BCB4
:102E8C009E467047F8B500BFF8BC08BC9E4670471C
:102E9C000800000000000000000000000102030414
:102EAC000607080902030405060708090A0B0C0D9E
:082EBC000E0F101001020000CE
:042EC40031010008D0
:042EC8000D010008F0
:0C2ECC0000127A0010000000010000005D
:040000050800186D6A
:00000001FF
